{
  "contractName": "LandContract",
  "abi": [
    {
      "constant": true,
      "inputs": [
        {
          "name": "",
          "type": "address"
        }
      ],
      "name": "balances",
      "outputs": [
        {
          "name": "",
          "type": "uint256"
        }
      ],
      "payable": false,
      "stateMutability": "view",
      "type": "function"
    },
    {
      "constant": true,
      "inputs": [
        {
          "name": "",
          "type": "uint256"
        }
      ],
      "name": "plots",
      "outputs": [
        {
          "name": "id",
          "type": "uint256"
        },
        {
          "name": "owner",
          "type": "address"
        },
        {
          "name": "forSale",
          "type": "bool"
        },
        {
          "name": "price",
          "type": "uint256"
        },
        {
          "name": "name",
          "type": "string"
        },
        {
          "name": "location",
          "type": "string"
        }
      ],
      "payable": false,
      "stateMutability": "view",
      "type": "function"
    },
    {
      "constant": true,
      "inputs": [],
      "name": "plotsForSaleCount",
      "outputs": [
        {
          "name": "",
          "type": "uint256"
        }
      ],
      "payable": false,
      "stateMutability": "view",
      "type": "function"
    },
    {
      "constant": true,
      "inputs": [],
      "name": "noOfPlots",
      "outputs": [
        {
          "name": "",
          "type": "uint256"
        }
      ],
      "payable": false,
      "stateMutability": "view",
      "type": "function"
    },
    {
      "inputs": [],
      "payable": false,
      "stateMutability": "nonpayable",
      "type": "constructor"
    },
    {
      "anonymous": false,
      "inputs": [
        {
          "indexed": false,
          "name": "index",
          "type": "uint256"
        }
      ],
      "name": "PlotOwnerChanged",
      "type": "event"
    },
    {
      "anonymous": false,
      "inputs": [
        {
          "indexed": false,
          "name": "index",
          "type": "uint256"
        },
        {
          "indexed": false,
          "name": "price",
          "type": "uint256"
        }
      ],
      "name": "PlotPriceChanged",
      "type": "event"
    },
    {
      "anonymous": false,
      "inputs": [
        {
          "indexed": false,
          "name": "index",
          "type": "uint256"
        },
        {
          "indexed": false,
          "name": "price",
          "type": "uint256"
        },
        {
          "indexed": false,
          "name": "forSale",
          "type": "bool"
        }
      ],
      "name": "PlotAvailabilityChanged",
      "type": "event"
    },
    {
      "constant": false,
      "inputs": [
        {
          "name": "index",
          "type": "uint256"
        },
        {
          "name": "price",
          "type": "uint256"
        }
      ],
      "name": "putPlotUpForSale",
      "outputs": [],
      "payable": false,
      "stateMutability": "nonpayable",
      "type": "function"
    },
    {
      "constant": false,
      "inputs": [
        {
          "name": "index",
          "type": "uint256"
        }
      ],
      "name": "takeOffMarket",
      "outputs": [],
      "payable": false,
      "stateMutability": "nonpayable",
      "type": "function"
    },
    {
      "constant": true,
      "inputs": [],
      "name": "getPlots",
      "outputs": [
        {
          "name": "",
          "type": "address[]"
        },
        {
          "name": "",
          "type": "bool[]"
        },
        {
          "name": "",
          "type": "uint256[]"
        }
      ],
      "payable": false,
      "stateMutability": "view",
      "type": "function"
    },
    {
      "constant": true,
      "inputs": [],
      "name": "onSaleName",
      "outputs": [
        {
          "name": "",
          "type": "string[]"
        }
      ],
      "payable": false,
      "stateMutability": "view",
      "type": "function"
    },
    {
      "constant": true,
      "inputs": [],
      "name": "onSaleCount",
      "outputs": [
        {
          "name": "",
          "type": "uint256[]"
        }
      ],
      "payable": false,
      "stateMutability": "view",
      "type": "function"
    },
    {
      "constant": true,
      "inputs": [],
      "name": "onSaleLocation",
      "outputs": [
        {
          "name": "",
          "type": "string[]"
        },
        {
          "name": "",
          "type": "uint256"
        }
      ],
      "payable": false,
      "stateMutability": "view",
      "type": "function"
    },
    {
      "constant": true,
      "inputs": [],
      "name": "onSalePrice",
      "outputs": [
        {
          "name": "",
          "type": "uint256[]"
        },
        {
          "name": "",
          "type": "uint256"
        }
      ],
      "payable": false,
      "stateMutability": "view",
      "type": "function"
    },
    {
      "constant": true,
      "inputs": [],
      "name": "myPlotsName",
      "outputs": [
        {
          "name": "",
          "type": "string[]"
        }
      ],
      "payable": false,
      "stateMutability": "view",
      "type": "function"
    },
    {
      "constant": true,
      "inputs": [],
      "name": "myPlotsCount",
      "outputs": [
        {
          "name": "",
          "type": "uint256[]"
        }
      ],
      "payable": false,
      "stateMutability": "view",
      "type": "function"
    },
    {
      "constant": true,
      "inputs": [],
      "name": "myPlotsLocation",
      "outputs": [
        {
          "name": "",
          "type": "string[]"
        },
        {
          "name": "",
          "type": "uint256"
        }
      ],
      "payable": false,
      "stateMutability": "view",
      "type": "function"
    },
    {
      "constant": true,
      "inputs": [],
      "name": "myPlotsPrice",
      "outputs": [
        {
          "name": "",
          "type": "uint256[]"
        },
        {
          "name": "",
          "type": "uint256"
        }
      ],
      "payable": false,
      "stateMutability": "view",
      "type": "function"
    },
    {
      "constant": true,
      "inputs": [],
      "name": "myPlotsSaleCheck",
      "outputs": [
        {
          "name": "",
          "type": "bool[]"
        },
        {
          "name": "",
          "type": "uint256"
        }
      ],
      "payable": false,
      "stateMutability": "view",
      "type": "function"
    },
    {
      "constant": true,
      "inputs": [],
      "name": "idOfMyOffSalePlot",
      "outputs": [
        {
          "name": "",
          "type": "uint256[]"
        },
        {
          "name": "",
          "type": "uint256"
        }
      ],
      "payable": false,
      "stateMutability": "view",
      "type": "function"
    },
    {
      "constant": true,
      "inputs": [],
      "name": "priceOfMyOffSalePlot",
      "outputs": [
        {
          "name": "",
          "type": "uint256[]"
        },
        {
          "name": "",
          "type": "uint256"
        }
      ],
      "payable": false,
      "stateMutability": "view",
      "type": "function"
    },
    {
      "constant": true,
      "inputs": [],
      "name": "nameOfMyOffSalePlot",
      "outputs": [
        {
          "name": "",
          "type": "string[]"
        },
        {
          "name": "",
          "type": "uint256"
        }
      ],
      "payable": false,
      "stateMutability": "view",
      "type": "function"
    },
    {
      "constant": false,
      "inputs": [
        {
          "name": "index",
          "type": "uint256"
        }
      ],
      "name": "buyPlot",
      "outputs": [],
      "payable": true,
      "stateMutability": "payable",
      "type": "function"
    }
  ],
  "bytecode": "0x6080604052600c603e553480156200001657600080fd5b50336000806101000a81548173ffffffffffffffffffffffffffffffffffffffff021916908373ffffffffffffffffffffffffffffffffffffffff160217905550600073a43a9c5cbfce8e324af63fc346a05171e8cfe7579050600073026513360c12159c8a3b4c6d9351082e2f5db0a99050600160026000600c81106200009a57fe5b60050201600001819055508160026000600c8110620000b557fe5b6005020160010160006101000a81548173ffffffffffffffffffffffffffffffffffffffff021916908373ffffffffffffffffffffffffffffffffffffffff160217905550610fa060026000600c81106200010c57fe5b6005020160020181905550600160026000600c81106200012857fe5b6005020160010160146101000a81548160ff0219169083151502179055506040518060400160405280600681526020017f506c6f742031000000000000000000000000000000000000000000000000000081525060026000600c81106200018b57fe5b600502016003019080519060200190620001a79291906200129e565b506040518060400160405280600881526020017f42616e6573776f7200000000000000000000000000000000000000000000000081525060026000600c8110620001ed57fe5b600502016004019080519060200190620002099291906200129e565b506002806001600c81106200021a57fe5b60050201600001819055508160026001600c81106200023557fe5b6005020160010160006101000a81548173ffffffffffffffffffffffffffffffffffffffff021916908373ffffffffffffffffffffffffffffffffffffffff160217905550610fa060026001600c81106200028c57fe5b6005020160020181905550600060026001600c8110620002a857fe5b6005020160010160146101000a81548160ff0219169083151502179055506040518060400160405280600681526020017f506c6f742032000000000000000000000000000000000000000000000000000081525060026001600c81106200030b57fe5b600502016003019080519060200190620003279291906200129e565b506040518060400160405280600881526020017f4b6f746573776f7200000000000000000000000000000000000000000000000081525060026001600c81106200036d57fe5b600502016004019080519060200190620003899291906200129e565b506003600280600c81106200039a57fe5b600502016000018190555081600280600c8110620003b457fe5b6005020160010160006101000a81548173ffffffffffffffffffffffffffffffffffffffff021916908373ffffffffffffffffffffffffffffffffffffffff160217905550610fa0600280600c81106200040a57fe5b60050201600201819055506001600280600c81106200042557fe5b6005020160010160146101000a81548160ff0219169083151502179055506040518060400160405280600681526020017f506c6f7420330000000000000000000000000000000000000000000000000000815250600280600c81106200048757fe5b600502016003019080519060200190620004a39291906200129e565b506040518060400160405280600581526020017f5468696d69000000000000000000000000000000000000000000000000000000815250600280600c8110620004e857fe5b600502016004019080519060200190620005049291906200129e565b50600460026003600c81106200051657fe5b60050201600001819055508160026003600c81106200053157fe5b6005020160010160006101000a81548173ffffffffffffffffffffffffffffffffffffffff021916908373ffffffffffffffffffffffffffffffffffffffff160217905550610fa060026003600c81106200058857fe5b6005020160020181905550600060026003600c8110620005a457fe5b6005020160010160146101000a81548160ff0219169083151502179055506040518060400160405280600681526020017f506c6f742034000000000000000000000000000000000000000000000000000081525060026003600c81106200060757fe5b600502016003019080519060200190620006239291906200129e565b506040518060400160405280600781526020017f4a6f72706174690000000000000000000000000000000000000000000000000081525060026003600c81106200066957fe5b600502016004019080519060200190620006859291906200129e565b50600560026004600c81106200069757fe5b60050201600001819055508160026004600c8110620006b257fe5b6005020160010160006101000a81548173ffffffffffffffffffffffffffffffffffffffff021916908373ffffffffffffffffffffffffffffffffffffffff160217905550610fa060026004600c81106200070957fe5b6005020160020181905550600060026004600c81106200072557fe5b6005020160010160146101000a81548160ff0219169083151502179055506040518060400160405280600681526020017f506c6f742035000000000000000000000000000000000000000000000000000081525060026004600c81106200078857fe5b600502016003019080519060200190620007a49291906200129e565b506040518060400160405280600a81526020017f4c6f6b616e7468616c690000000000000000000000000000000000000000000081525060026004600c8110620007ea57fe5b600502016004019080519060200190620008069291906200129e565b50600660026005600c81106200081857fe5b60050201600001819055508160026005600c81106200083357fe5b6005020160010160006101000a81548173ffffffffffffffffffffffffffffffffffffffff021916908373ffffffffffffffffffffffffffffffffffffffff160217905550610fa060026005600c81106200088a57fe5b6005020160020181905550600160026005600c8110620008a657fe5b6005020160010160146101000a81548160ff0219169083151502179055506040518060400160405280600681526020017f506c6f742036000000000000000000000000000000000000000000000000000081525060026005600c81106200090957fe5b600502016003019080519060200190620009259291906200129e565b506040518060400160405280600a81526020017f4a6177616c616b68656c0000000000000000000000000000000000000000000081525060026005600c81106200096b57fe5b600502016004019080519060200190620009879291906200129e565b50600760026006600c81106200099957fe5b60050201600001819055508060026006600c8110620009b457fe5b6005020160010160006101000a81548173ffffffffffffffffffffffffffffffffffffffff021916908373ffffffffffffffffffffffffffffffffffffffff160217905550610fa060026006600c811062000a0b57fe5b6005020160020181905550600160026006600c811062000a2757fe5b6005020160010160146101000a81548160ff0219169083151502179055506040518060400160405280600681526020017f506c6f742037000000000000000000000000000000000000000000000000000081525060026006600c811062000a8a57fe5b60050201600301908051906020019062000aa69291906200129e565b506040518060400160405280600881526020017f50756c63686f776b00000000000000000000000000000000000000000000000081525060026006600c811062000aec57fe5b60050201600401908051906020019062000b089291906200129e565b50600860026007600c811062000b1a57fe5b60050201600001819055508060026007600c811062000b3557fe5b6005020160010160006101000a81548173ffffffffffffffffffffffffffffffffffffffff021916908373ffffffffffffffffffffffffffffffffffffffff160217905550610fa060026007600c811062000b8c57fe5b6005020160020181905550600160026007600c811062000ba857fe5b6005020160010160146101000a81548160ff0219169083151502179055506040518060400160405280600681526020017f506c6f742038000000000000000000000000000000000000000000000000000081525060026007600c811062000c0b57fe5b60050201600301908051906020019062000c279291906200129e565b506040518060400160405280600681526020017f42616c616a75000000000000000000000000000000000000000000000000000081525060026007600c811062000c6d57fe5b60050201600401908051906020019062000c899291906200129e565b50600960026008600c811062000c9b57fe5b60050201600001819055508060026008600c811062000cb657fe5b6005020160010160006101000a81548173ffffffffffffffffffffffffffffffffffffffff021916908373ffffffffffffffffffffffffffffffffffffffff160217905550610fa060026008600c811062000d0d57fe5b6005020160020181905550600160026008600c811062000d2957fe5b6005020160010160146101000a81548160ff0219169083151502179055506040518060400160405280600681526020017f506c6f742039000000000000000000000000000000000000000000000000000081525060026008600c811062000d8c57fe5b60050201600301908051906020019062000da89291906200129e565b506040518060400160405280600981526020017f5065707369636f6c61000000000000000000000000000000000000000000000081525060026008600c811062000dee57fe5b60050201600401908051906020019062000e0a9291906200129e565b50600a60026009600c811062000e1c57fe5b60050201600001819055508060026009600c811062000e3757fe5b6005020160010160006101000a81548173ffffffffffffffffffffffffffffffffffffffff021916908373ffffffffffffffffffffffffffffffffffffffff160217905550610fa060026009600c811062000e8e57fe5b6005020160020181905550600160026009600c811062000eaa57fe5b6005020160010160146101000a81548160ff0219169083151502179055506040518060400160405280600781526020017f506c6f742031300000000000000000000000000000000000000000000000000081525060026009600c811062000f0d57fe5b60050201600301908051906020019062000f299291906200129e565b506040518060400160405280600981526020017f536174646f6261746f000000000000000000000000000000000000000000000081525060026009600c811062000f6f57fe5b60050201600401908051906020019062000f8b9291906200129e565b50600b6002600a600c811062000f9d57fe5b6005020160000181905550806002600a600c811062000fb857fe5b6005020160010160006101000a81548173ffffffffffffffffffffffffffffffffffffffff021916908373ffffffffffffffffffffffffffffffffffffffff160217905550610fa06002600a600c81106200100f57fe5b600502016002018190555060016002600a600c81106200102b57fe5b6005020160010160146101000a81548160ff0219169083151502179055506040518060400160405280600781526020017f506c6f74203131000000000000000000000000000000000000000000000000008152506002600a600c81106200108e57fe5b600502016003019080519060200190620010aa9291906200129e565b506040518060400160405280600681526020017f42616c6b687500000000000000000000000000000000000000000000000000008152506002600a600c8110620010f057fe5b6005020160040190805190602001906200110c9291906200129e565b50600c6002600b600c81106200111e57fe5b6005020160000181905550806002600b600c81106200113957fe5b6005020160010160006101000a81548173ffffffffffffffffffffffffffffffffffffffff021916908373ffffffffffffffffffffffffffffffffffffffff160217905550610fa06002600b600c81106200119057fe5b600502016002018190555060016002600b600c8110620011ac57fe5b6005020160010160146101000a81548160ff0219169083151502179055506040518060400160405280600781526020017f506c6f74203132000000000000000000000000000000000000000000000000008152506002600b600c81106200120f57fe5b6005020160030190805190602001906200122b9291906200129e565b506040518060400160405280600a81526020017f456b616e74616b756e61000000000000000000000000000000000000000000008152506002600b600c81106200127157fe5b6005020160040190805190602001906200128d9291906200129e565b50600c603f8190555050506200134d565b828054600181600116156101000203166002900490600052602060002090601f016020900481019282601f10620012e157805160ff191683800117855562001312565b8280016001018555821562001312579182015b8281111562001311578251825591602001919060010190620012f4565b5b50905062001321919062001325565b5090565b6200134a91905b80821115620013465760008160009055506001016200132c565b5090565b90565b61215e806200135d6000396000f3fe60806040526004361061011f5760003560e01c8063683a5560116100a0578063d81595f111610064578063d81595f1146103c9578063da1f5280146103f2578063e1022df41461041d578063f9cf80a914610448578063fdd149b2146104755761011f565b8063683a5560146103015780637b1949d21461032c578063b46f4dd414610348578063b7bf436c14610374578063d1311446146103a05761011f565b80632ada6cf5116100e75780632ada6cf514610210578063356e78631461023c5780633573009c1461026757806355f10e671461029357806361bf49ee146102bf5761011f565b80630b6b7a1f146101245780630bf393041461014f578063193d89af1461017b578063212ae557146101a757806327e235e3146101d3575b600080fd5b34801561013057600080fd5b506101396104a0565b6040516101469190611e00565b60405180910390f35b34801561015b57600080fd5b506101646105f1565b604051610172929190611e22565b60405180910390f35b34801561018757600080fd5b50610190610788565b60405161019e929190611e74565b60405180910390f35b3480156101b357600080fd5b506101bc610842565b6040516101ca929190611e74565b60405180910390f35b3480156101df57600080fd5b506101fa60048036036101f59190810190611a3f565b61095e565b6040516102079190611ea4565b60405180910390f35b34801561021c57600080fd5b50610225610976565b604051610233929190611dd0565b60405180910390f35b34801561024857600080fd5b50610251610a84565b60405161025e9190611e52565b60405180910390f35b34801561027357600080fd5b5061027c610b38565b60405161028a929190611e22565b60405180910390f35b34801561029f57600080fd5b506102a8610c8e565b6040516102b6929190611e74565b60405180910390f35b3480156102cb57600080fd5b506102e660048036036102e19190810190611a68565b610daa565b6040516102f896959493929190611ebf565b60405180910390f35b34801561030d57600080fd5b50610316610f46565b6040516103239190611e00565b60405180910390f35b61034660048036036103419190810190611a68565b6110d7565b005b34801561035457600080fd5b5061035d6112e7565b60405161036b929190611e22565b60405180910390f35b34801561038057600080fd5b5061038961149f565b604051610397929190611e74565b60405180910390f35b3480156103ac57600080fd5b506103c760048036036103c29190810190611a68565b61159a565b005b3480156103d557600080fd5b506103f060048036036103eb9190810190611a91565b61167f565b005b3480156103fe57600080fd5b50610407611775565b6040516104149190611ea4565b60405180910390f35b34801561042957600080fd5b5061043261177b565b60405161043f9190611ea4565b60405180910390f35b34801561045457600080fd5b5061045d611781565b60405161046c93929190611d84565b60405180910390f35b34801561048157600080fd5b5061048a611920565b6040516104979190611e52565b60405180910390f35b60606000600190506060600c6040519080825280602002602001820160405280156104df57816020015b60608152602001906001900390816104ca5790505b50905060008090505b600c8110156105e8576000600282600c811061050057fe5b6005020190508060010160149054906101000a900460ff16156105da57806003018054600181600116156101000203166002900480601f0160208091040260200160405190810160405280929190818152602001828054600181600116156101000203166002900480156105b55780601f1061058a576101008083540402835291602001916105b5565b820191906000526020600020905b81548152906001019060200180831161059857829003601f168201915b50505050508385815181106105c657fe5b602002602001018190525083806001019450505b5080806001019150506104e8565b50809250505090565b6060600080600090506060600c60405190808252806020026020018201604052801561063157816020015b606081526020019060019003908161061c5790505b50905060008090505b600c81101561077b576000600282600c811061065257fe5b6005020190503373ffffffffffffffffffffffffffffffffffffffff168160010160009054906101000a900473ffffffffffffffffffffffffffffffffffffffff1673ffffffffffffffffffffffffffffffffffffffff16141561076d57806004018054600181600116156101000203166002900480601f0160208091040260200160405190810160405280929190818152602001828054600181600116156101000203166002900480156107485780601f1061071d57610100808354040283529160200191610748565b820191906000526020600020905b81548152906001019060200180831161072b57829003601f168201915b505050505083858151811061075957fe5b602002602001018190525083806001019450505b50808060010191505061063a565b5080829350935050509091565b6060600080600090506060600c6040519080825280602002602001820160405280156107c35781602001602082028038833980820191505090505b50905060008090505b600c811015610835576000600282600c81106107e457fe5b6005020190508060010160149054906101000a900460ff161561082757806002015483858151811061081257fe5b60200260200101818152505083806001019450505b5080806001019150506107cc565b5080829350935050509091565b606060006060600c6040519080825280602002602001820160405280156108785781602001602082028038833980820191505090505b509050600080905060008090505b600c811015610951576000600282600c811061089e57fe5b6005020190503373ffffffffffffffffffffffffffffffffffffffff168160010160009054906101000a900473ffffffffffffffffffffffffffffffffffffffff1673ffffffffffffffffffffffffffffffffffffffff161480156109185750600015158160010160149054906101000a900460ff161515145b1561094357806002015484848151811061092e57fe5b60200260200101818152505082806001019350505b508080600101915050610886565b5081819350935050509091565b60016020528060005260406000206000915090505481565b6060600080600090506060600c6040519080825280602002602001820160405280156109b15781602001602082028038833980820191505090505b50905060008090505b600c811015610a77576000600282600c81106109d257fe5b6005020190503373ffffffffffffffffffffffffffffffffffffffff168160010160009054906101000a900473ffffffffffffffffffffffffffffffffffffffff1673ffffffffffffffffffffffffffffffffffffffff161415610a69578060010160149054906101000a900460ff16838581518110610a4e57fe5b60200260200101901515908115158152505083806001019450505b5080806001019150506109ba565b5080829350935050509091565b606060008090506060600c604051908082528060200260200182016040528015610abd5781602001602082028038833980820191505090505b50905060008090505b600c811015610b2f576000600282600c8110610ade57fe5b6005020190508060010160149054906101000a900460ff1615610b21578060000154838581518110610b0c57fe5b60200260200101818152505083806001019450505b508080600101915050610ac6565b50809250505090565b6060600080600090506060600c604051908082528060200260200182016040528015610b7857816020015b6060815260200190600190039081610b635790505b50905060008090505b600c811015610c81576000600282600c8110610b9957fe5b6005020190508060010160149054906101000a900460ff1615610c7357806004018054600181600116156101000203166002900480601f016020809104026020016040519081016040528092919081815260200182805460018160011615610100020316600290048015610c4e5780601f10610c2357610100808354040283529160200191610c4e565b820191906000526020600020905b815481529060010190602001808311610c3157829003601f168201915b5050505050838581518110610c5f57fe5b602002602001018190525083806001019450505b508080600101915050610b81565b5080829350935050509091565b606060006060600c604051908082528060200260200182016040528015610cc45781602001602082028038833980820191505090505b509050600080905060008090505b600c811015610d9d576000600282600c8110610cea57fe5b6005020190503373ffffffffffffffffffffffffffffffffffffffff168160010160009054906101000a900473ffffffffffffffffffffffffffffffffffffffff1673ffffffffffffffffffffffffffffffffffffffff16148015610d645750600015158160010160149054906101000a900460ff161515145b15610d8f578060000154848481518110610d7a57fe5b60200260200101818152505082806001019350505b508080600101915050610cd2565b5081819350935050509091565b600281600c8110610db757fe5b600502016000915090508060000154908060010160009054906101000a900473ffffffffffffffffffffffffffffffffffffffff16908060010160149054906101000a900460ff1690806002015490806003018054600181600116156101000203166002900480601f016020809104026020016040519081016040528092919081815260200182805460018160011615610100020316600290048015610e9e5780601f10610e7357610100808354040283529160200191610e9e565b820191906000526020600020905b815481529060010190602001808311610e8157829003601f168201915b505050505090806004018054600181600116156101000203166002900480601f016020809104026020016040519081016040528092919081815260200182805460018160011615610100020316600290048015610f3c5780601f10610f1157610100808354040283529160200191610f3c565b820191906000526020600020905b815481529060010190602001808311610f1f57829003601f168201915b5050505050905086565b606060008090506060600c604051908082528060200260200182016040528015610f8457816020015b6060815260200190600190039081610f6f5790505b50905060008090505b600c8110156110ce576000600282600c8110610fa557fe5b6005020190503373ffffffffffffffffffffffffffffffffffffffff168160010160009054906101000a900473ffffffffffffffffffffffffffffffffffffffff1673ffffffffffffffffffffffffffffffffffffffff1614156110c057806003018054600181600116156101000203166002900480601f01602080910402602001604051908101604052809291908181526020018280546001816001161561010002031660029004801561109b5780601f106110705761010080835404028352916020019161109b565b820191906000526020600020905b81548152906001019060200180831161107e57829003601f168201915b50505050508385815181106110ac57fe5b602002602001018190525083806001019450505b508080600101915050610f8d565b50809250505090565b6000600282600c81106110e657fe5b6005020190508060010160009054906101000a900473ffffffffffffffffffffffffffffffffffffffff1673ffffffffffffffffffffffffffffffffffffffff163373ffffffffffffffffffffffffffffffffffffffff161415801561115a57508060010160149054906101000a900460ff165b801561116a575080600201543410155b61117357600080fd5b8060020154600160008360010160009054906101000a900473ffffffffffffffffffffffffffffffffffffffff1673ffffffffffffffffffffffffffffffffffffffff1673ffffffffffffffffffffffffffffffffffffffff168152602001908152602001600020600082825401925050819055508060020154600160003373ffffffffffffffffffffffffffffffffffffffff1673ffffffffffffffffffffffffffffffffffffffff16815260200190815260200160002060008282540392505081905550338160010160006101000a81548173ffffffffffffffffffffffffffffffffffffffff021916908373ffffffffffffffffffffffffffffffffffffffff16021790555060008160010160146101000a81548160ff021916908315150217905550603f60008154809291906001900391905055507fdfae03cf228ff8c45c20fc02b731bb43373364bd428f52e24885f609814ce497826040516112db9190611ea4565b60405180910390a15050565b606060006060600c60405190808252806020026020018201604052801561132257816020015b606081526020019060019003908161130d5790505b509050600080905060008090505b600c811015611492576000600282600c811061134857fe5b6005020190503373ffffffffffffffffffffffffffffffffffffffff168160010160009054906101000a900473ffffffffffffffffffffffffffffffffffffffff1673ffffffffffffffffffffffffffffffffffffffff161480156113c25750600015158160010160149054906101000a900460ff161515145b1561148457806003018054600181600116156101000203166002900480601f01602080910402602001604051908101604052809291908181526020018280546001816001161561010002031660029004801561145f5780601f106114345761010080835404028352916020019161145f565b820191906000526020600020905b81548152906001019060200180831161144257829003601f168201915b505050505084848151811061147057fe5b602002602001018190525082806001019350505b508080600101915050611330565b5081819350935050509091565b6060600080600090506060600c6040519080825280602002602001820160405280156114da5781602001602082028038833980820191505090505b50905060008090505b600c81101561158d576000600282600c81106114fb57fe5b6005020190503373ffffffffffffffffffffffffffffffffffffffff168160010160009054906101000a900473ffffffffffffffffffffffffffffffffffffffff1673ffffffffffffffffffffffffffffffffffffffff16141561157f57806002015483858151811061156a57fe5b60200260200101818152505083806001019450505b5080806001019150506114e3565b5080829350935050509091565b6000600282600c81106115a957fe5b6005020190508060010160009054906101000a900473ffffffffffffffffffffffffffffffffffffffff1673ffffffffffffffffffffffffffffffffffffffff163373ffffffffffffffffffffffffffffffffffffffff161461160b57600080fd5b60008160010160146101000a81548160ff0219169083151502179055507ff8d85ddec75c998a4715c6f8d537607faa56efa42937f3ed1e18eb6ab0ab4af3828260020154600060405161166093929190611f2e565b60405180910390a1603f60008154809291906001900391905055505050565b6000600283600c811061168e57fe5b6005020190508060010160009054906101000a900473ffffffffffffffffffffffffffffffffffffffff1673ffffffffffffffffffffffffffffffffffffffff163373ffffffffffffffffffffffffffffffffffffffff161480156116f35750600082115b6116fc57600080fd5b60018160010160146101000a81548160ff0219169083151502179055508181600201819055507ff8d85ddec75c998a4715c6f8d537607faa56efa42937f3ed1e18eb6ab0ab4af38383600160405161175693929190611f2e565b60405180910390a1603f60008154809291906001019190505550505050565b603f5481565b603e5481565b606080606080600c6040519080825280602002602001820160405280156117b75781602001602082028038833980820191505090505b5090506060600c6040519080825280602002602001820160405280156117ec5781602001602082028038833980820191505090505b5090506060600c6040519080825280602002602001820160405280156118215781602001602082028038833980820191505090505b50905060008090505b600c81101561190e576000600282600c811061184257fe5b6005020190508060010160009054906101000a900473ffffffffffffffffffffffffffffffffffffffff1685838151811061187957fe5b602002602001019073ffffffffffffffffffffffffffffffffffffffff16908173ffffffffffffffffffffffffffffffffffffffff168152505080600201548383815181106118c457fe5b6020026020010181815250508060010160149054906101000a900460ff168483815181106118ee57fe5b60200260200101901515908115158152505050808060010191505061182a565b50828282955095509550505050909192565b606060008090506060600c6040519080825280602002602001820160405280156119595781602001602082028038833980820191505090505b50905060008090505b600c811015611a0c576000600282600c811061197a57fe5b6005020190503373ffffffffffffffffffffffffffffffffffffffff168160010160009054906101000a900473ffffffffffffffffffffffffffffffffffffffff1673ffffffffffffffffffffffffffffffffffffffff1614156119fe5780600001548385815181106119e957fe5b60200260200101818152505083806001019450505b508080600101915050611962565b50809250505090565b600081359050611a24816120f6565b92915050565b600081359050611a398161210d565b92915050565b600060208284031215611a5157600080fd5b6000611a5f84828501611a15565b91505092915050565b600060208284031215611a7a57600080fd5b6000611a8884828501611a2a565b91505092915050565b60008060408385031215611aa457600080fd5b6000611ab285828601611a2a565b9250506020611ac385828601611a2a565b9150509250929050565b6000611ad98383611b29565b60208301905092915050565b6000611af18383611cd6565b60208301905092915050565b6000611b098383611cf4565b905092915050565b6000611b1d8383611d66565b60208301905092915050565b611b328161206a565b82525050565b611b418161206a565b82525050565b6000611b5282611f99565b611b5c8185612004565b9350611b6783611f65565b8060005b83811015611b98578151611b7f8882611acd565b9750611b8a83611fd0565b925050600181019050611b6b565b5085935050505092915050565b6000611bb082611fa4565b611bba8185612015565b9350611bc583611f72565b8060005b83811015611bf6578151611bdd8882611ae5565b9750611be883611fdd565b925050600181019050611bc9565b5085935050505092915050565b6000611c0e82611faf565b611c188185612026565b935083602082028501611c2a85611f7f565b8060005b85811015611c665784840389528151611c478582611afd565b9450611c5283611fea565b925060208a01995050600181019050611c2e565b50829750879550505050505092915050565b6000611c8382611fba565b611c8d8185612037565b9350611c9883611f8c565b8060005b83811015611cc9578151611cb08882611b11565b9750611cbb83611ff7565b925050600181019050611c9c565b5085935050505092915050565b611cdf8161207c565b82525050565b611cee8161207c565b82525050565b6000611cff82611fc5565b611d098185612048565b9350611d198185602086016120b2565b611d22816120e5565b840191505092915050565b6000611d3882611fc5565b611d428185612059565b9350611d528185602086016120b2565b611d5b816120e5565b840191505092915050565b611d6f816120a8565b82525050565b611d7e816120a8565b82525050565b60006060820190508181036000830152611d9e8186611b47565b90508181036020830152611db28185611ba5565b90508181036040830152611dc68184611c78565b9050949350505050565b60006040820190508181036000830152611dea8185611ba5565b9050611df96020830184611d75565b9392505050565b60006020820190508181036000830152611e1a8184611c03565b905092915050565b60006040820190508181036000830152611e3c8185611c03565b9050611e4b6020830184611d75565b9392505050565b60006020820190508181036000830152611e6c8184611c78565b905092915050565b60006040820190508181036000830152611e8e8185611c78565b9050611e9d6020830184611d75565b9392505050565b6000602082019050611eb96000830184611d75565b92915050565b600060c082019050611ed46000830189611d75565b611ee16020830188611b38565b611eee6040830187611ce5565b611efb6060830186611d75565b8181036080830152611f0d8185611d2d565b905081810360a0830152611f218184611d2d565b9050979650505050505050565b6000606082019050611f436000830186611d75565b611f506020830185611d75565b611f5d6040830184611ce5565b949350505050565b6000602082019050919050565b6000602082019050919050565b6000602082019050919050565b6000602082019050919050565b600081519050919050565b600081519050919050565b600081519050919050565b600081519050919050565b600081519050919050565b6000602082019050919050565b6000602082019050919050565b6000602082019050919050565b6000602082019050919050565b600082825260208201905092915050565b600082825260208201905092915050565b600082825260208201905092915050565b600082825260208201905092915050565b600082825260208201905092915050565b600082825260208201905092915050565b600061207582612088565b9050919050565b60008115159050919050565b600073ffffffffffffffffffffffffffffffffffffffff82169050919050565b6000819050919050565b60005b838110156120d05780820151818401526020810190506120b5565b838111156120df576000848401525b50505050565b6000601f19601f8301169050919050565b6120ff8161206a565b811461210a57600080fd5b50565b612116816120a8565b811461212157600080fd5b5056fea265627a7a72305820a4d83f7502b441bda4f6ad6e183a5507dca2c4e9fe41a4cddffdca15b69e9a4a6c6578706572696d656e74616cf50037",
  "source": "pragma experimental ABIEncoderV2;\npragma solidity ^0.5.0;\n\n\ncontract LandContract {\n    address owner;\n    mapping (address => uint) public balances;\n\n    struct Plot {\n        uint id;\n        address owner;\n        bool forSale;\n        uint price;\n        string name;\n        string location;\n    }\n\n    Plot[12] public plots;\n\n    uint public noOfPlots = 12;\n    uint public plotsForSaleCount;\n\n    event PlotOwnerChanged(\n        uint index\n    );\n\n    event PlotPriceChanged(\n        uint index,\n        uint price\n    );\n\n    event PlotAvailabilityChanged(\n        uint index,\n        uint price,\n        bool forSale\n    );\n\n    constructor() public {\n        owner = msg.sender;\n        address x1 = 0xa43A9c5cbFcE8E324AF63fc346A05171e8cfE757;\n        address x2 = 0x026513360c12159C8a3b4c6D9351082E2f5DB0A9;\n        plots[0].id = 1;\n        plots[0].owner= x1;\n        plots[0].price = 4000;\n        plots[0].forSale = true;\n        plots[0].name = 'Plot 1';\n        plots[0].location = 'Baneswor';\n        plots[1].id = 2;\n        plots[1].owner = x1;\n        plots[1].price = 4000;\n        plots[1].forSale = false;\n        plots[1].name = 'Plot 2';\n        plots[1].location = 'Koteswor';\n        plots[2].id = 3;\n        plots[2].owner = x1;\n        plots[2].price = 4000;\n        plots[2].forSale = true;\n        plots[2].name = 'Plot 3';\n        plots[2].location = 'Thimi';\n        plots[3].id = 4;\n        plots[3].owner= x1;\n        plots[3].price = 4000;\n        plots[3].forSale = false;\n        plots[3].name = 'Plot 4';\n        plots[3].location = 'Jorpati';\n        plots[4].id = 5;\n        plots[4].owner = x1;\n        plots[4].price = 4000;\n        plots[4].forSale = false;\n        plots[4].name = 'Plot 5';\n        plots[4].location = 'Lokanthali';\n        plots[5].id = 6;\n        plots[5].owner = x1;\n        plots[5].price = 4000;\n        plots[5].forSale = true;\n        plots[5].name = 'Plot 6';\n        plots[5].location = 'Jawalakhel';\n        plots[6].id = 7;\n        plots[6].owner = x2;\n        plots[6].price = 4000;\n        plots[6].forSale = true;\n        plots[6].name = 'Plot 7';\n        plots[6].location = 'Pulchowk';\n        plots[7].id = 8;\n        plots[7].owner = x2;\n        plots[7].price = 4000;\n        plots[7].forSale = true;\n        plots[7].name = 'Plot 8';\n        plots[7].location = 'Balaju';\n        plots[8].id = 9;\n        plots[8].owner = x2;\n        plots[8].price = 4000;\n        plots[8].forSale = true;\n        plots[8].name = 'Plot 9';\n        plots[8].location = 'Pepsicola';\n        plots[9].id = 10;\n        plots[9].owner = x2;\n        plots[9].price = 4000;\n        plots[9].forSale = true;\n        plots[9].name = 'Plot 10';\n        plots[9].location = 'Satdobato';\n        plots[10].id = 11;\n        plots[10].owner = x2;\n        plots[10].price = 4000;\n        plots[10].forSale = true;\n        plots[10].name = 'Plot 11';\n        plots[10].location = 'Balkhu';\n        plots[11].id = 12;\n        plots[11].owner = x2;\n        plots[11].price = 4000;\n        plots[11].forSale = true;\n        plots[11].name = 'Plot 12';\n        plots[11].location = 'Ekantakuna';\n        plotsForSaleCount = 12;\n\n    }\n\n\n    function putPlotUpForSale(uint index, uint price) public {\n        Plot storage plot = plots[index];\n\n        require(msg.sender == plot.owner && price > 0);\n\n        plot.forSale = true;\n        plot.price = price;\n        emit PlotAvailabilityChanged(index, price, true);\n        plotsForSaleCount ++;\n    }\n\n    function takeOffMarket(uint index) public {\n        Plot storage plot = plots[index];\n\n        require(msg.sender == plot.owner);\n\n        plot.forSale = false;\n        emit PlotAvailabilityChanged(index, plot.price, false);\n        plotsForSaleCount --;\n    }\n\n    function getPlots() public view returns(address[] memory, bool[] memory, uint[] memory) {\n        address[] memory addrs = new address[](12);\n        bool[] memory available = new bool[](12);\n        uint[] memory price = new uint[](12);\n\n        for (uint i = 0; i < 12; i++) {\n            Plot storage plot = plots[i];\n            addrs[i] = plot.owner;\n            price[i] = plot.price;\n            available[i] = plot.forSale;\n        }\n\n        return (addrs, available, price);\n    }\n\n    function onSaleName() public view returns(string[] memory) {\n\n      uint j = 1;\n      string[] memory plotName = new string[](12);\n      for (uint i=0;i<12;i++) {\n        Plot storage plot = plots[i];\n        if (plot.forSale){\n          plotName[j] = plot.name;\n          j++;\n        }\n      }\n      return (plotName);\n    }\n\n    function onSaleCount() public view returns(uint[] memory) {\n\n      uint j = 0;\n      uint[] memory plotID = new uint[](12);\n      for (uint i=0;i<12;i++) {\n        Plot storage plot = plots[i];\n        if (plot.forSale){\n          plotID[j] = plot.id;\n          // plotName[j] = plot.name;\n          j++;\n        }\n      }\n      return (plotID);\n    }\n\n    function onSaleLocation() public view returns(string[] memory,uint) {\n\n      uint j = 0;\n      string[] memory plotLocation = new string[](12);\n      for (uint i=0;i<12;i++) {\n        Plot storage plot = plots[i];\n        if (plot.forSale){\n          plotLocation[j] = plot.location;\n          j++;\n        }\n      }\n      return (plotLocation,j);\n    }\n\n    function onSalePrice() public view returns(uint[] memory,uint) {\n\n      uint j = 0;\n      uint[] memory plotPrice = new uint[](12);\n      for (uint i=0;i<12;i++) {\n        Plot storage plot = plots[i];\n        if (plot.forSale){\n          plotPrice[j] = plot.price;\n          j++;\n        }\n      }\n      return (plotPrice,j);\n    }\n\n    function myPlotsName() public view returns (string[] memory){\n      uint j = 0;\n      string[] memory plotName = new string[](12);\n      for (uint i=0;i<12;i++) {\n        Plot storage plot = plots[i];\n        if (plot.owner == msg.sender){\n          plotName[j] = plot.name;\n          j++;\n        }\n      }\n      return (plotName);\n    }\n\n    function myPlotsCount() public view returns (uint[] memory){\n      uint j = 0;\n      uint[] memory plotID = new uint[](12);\n      for (uint i=0;i<12;i++) {\n        Plot storage plot = plots[i];\n        if (plot.owner==msg.sender){\n          plotID[j] = plot.id;\n          // plotName[j] = plot.name;\n          j++;\n        }\n      }\n      return (plotID);\n    }\n\n    function myPlotsLocation() public view returns (string[] memory,uint){\n      uint j = 0;\n      string[] memory plotLocation = new string[](12);\n      for (uint i=0;i<12;i++) {\n        Plot storage plot = plots[i];\n        if (plot.owner == msg.sender){\n          plotLocation[j] = plot.location;\n          j++;\n        }\n      }\n      return (plotLocation,j);\n    }\n\n    function myPlotsPrice() public view returns (uint[] memory,uint){\n      uint j = 0;\n      uint[] memory plotPrice = new uint[](12);\n      for (uint i=0;i<12;i++) {\n        Plot storage plot = plots[i];\n        if (plot.owner == msg.sender){\n          plotPrice[j] = plot.price;\n          j++;\n        }\n      }\n      return (plotPrice,j);\n    }\n\n    function myPlotsSaleCheck() public view returns (bool[] memory,uint){\n      uint j = 0;\n      bool[] memory plotSaleCheck = new bool[](12);\n      for (uint i=0;i<12;i++) {\n        Plot storage plot = plots[i];\n        if (plot.owner == msg.sender){\n          plotSaleCheck[j] = plot.forSale;\n          j++;\n        }\n      }\n      return (plotSaleCheck,j);\n    }\n\n\n    function idOfMyOffSalePlot() public view returns(uint[] memory, uint){\n      uint[] memory ids = new uint[](12);\n      uint j=0;\n      for (uint i=0;i<12;i++){\n        Plot storage plot = plots[i];\n        if (plot.owner == msg.sender && plot.forSale == false) {\n          ids[j] = plot.id;\n          j++;\n        }\n      }\n      return (ids,j);\n    }\n\n    function priceOfMyOffSalePlot() public view returns(uint[] memory, uint){\n      uint[] memory prices = new uint[](12);\n      uint j=0;\n      for (uint i=0;i<12;i++){\n        Plot storage plot = plots[i];\n        if (plot.owner == msg.sender && plot.forSale == false) {\n          prices[j] = plot.price;\n          j++;\n        }\n      }\n      return (prices,j);\n    }\n\n    function nameOfMyOffSalePlot() public view returns(string[] memory, uint){\n      string[] memory names=new string[](12);\n      uint j=0;\n      for (uint i=0;i<12;i++){\n        Plot storage plot = plots[i];\n        if (plot.owner == msg.sender && plot.forSale == false) {\n          names[j] = plot.name;\n          j++;\n        }\n      }\n      return (names,j);\n    }\n\n\n\n    function buyPlot(uint index) public payable {\n        Plot storage plot = plots[index];\n\n        require(msg.sender != plot.owner && plot.forSale && msg.value >= plot.price);\n\n\n        balances[plot.owner] += plot.price;\n        balances[msg.sender] -= plot.price;\n\n\n        plot.owner = msg.sender;\n        plot.forSale = false;\n        plotsForSaleCount --;\n        emit PlotOwnerChanged(index);\n    }\n\n\n}\n",
  "sourcePath": "/media/lakshya/B68AF4878AF44581/blockChain/LandContract/contracts/LandContract.sol",
  "compiler": {
    "name": "solc",
    "version": "0.5.8+commit.23d335f2.Emscripten.clang"
  },
  "schemaVersion": "3.0.11",
  "updatedAt": "2019-07-20T17:57:19.064Z",
  "devdoc": {
    "methods": {}
  },
  "userdoc": {
    "methods": {}
  }
}